{
  "transactions": [
    {
      "hash": "0x794c14619f31fbce3f3567236dd83dfecb747a3f4cc817d185f723e039741714",
      "transactionType": "CALL",
      "contractName": null,
      "contractAddress": "0xd8a5a9b31c3c0232e196d518e89fd8bf83acad43",
      "function": "setImageId(uint32)",
      "arguments": [
        "0"
      ],
      "transaction": {
        "from": "0xf39fd6e51aad88f6f4ce6ab8827279cfffb92266",
        "to": "0xd8a5a9b31c3c0232e196d518e89fd8bf83acad43",
        "gas": "0x10e06",
        "value": "0x0",
        "input": "0x4468726a0000000000000000000000000000000000000000000000000000000000000000",
        "nonce": "0x50",
        "chainId": "0x7a69"
      },
      "additionalContracts": [],
      "isFixedGasLimit": false
    }
  ],
  "receipts": [
    {
      "status": "0x1",
      "cumulativeGasUsed": "0xc37f",
      "logs": [],
      "logsBloom": "0x00000000000000000000000000000000000000000000000000000000000000000000000000000000000000000000000000000000000000000000000000000000000000000000000000000000000000000000000000000000000000000000000000000000000000000000000000000000000000000000000000000000000000000000000000000000000000000000000000000000000000000000000000000000000000000000000000000000000000000000000000000000000000000000000000000000000000000000000000000000000000000000000000000000000000000000000000000000000000000000000000000000000000000000000000000000",
      "type": "0x2",
      "transactionHash": "0x794c14619f31fbce3f3567236dd83dfecb747a3f4cc817d185f723e039741714",
      "transactionIndex": "0x0",
      "blockHash": "0x98499a14867d7b88963788cfa67e65ccef8ad8641642d73e829612bb8ad1f3ea",
      "blockNumber": "0x2b",
      "gasUsed": "0xc37f",
      "effectiveGasPrice": "0x612d36",
      "blobGasPrice": "0x1",
      "from": "0xf39fd6e51aad88f6f4ce6ab8827279cfffb92266",
      "to": "0xd8a5a9b31c3c0232e196d518e89fd8bf83acad43",
      "contractAddress": null
    }
  ],
  "libraries": [],
  "pending": [],
  "returns": {},
  "timestamp": 1747667390,
  "chain": 31337,
  "commit": "8e00635"
}