{
  "transactions": [
    {
      "hash": "0xfae81125b917d0d8d4b855de218142be46c5a54d7fb71bec4b1a4d4a9e9c389e",
      "transactionType": "CALL",
      "contractName": null,
      "contractAddress": "0xcd8a1c3ba11cf5ecfa6267617243239504a98d90",
      "function": "setImageId(uint32)",
      "arguments": [
        "0"
      ],
      "transaction": {
        "from": "0xf39fd6e51aad88f6f4ce6ab8827279cfffb92266",
        "to": "0xcd8a1c3ba11cf5ecfa6267617243239504a98d90",
        "gas": "0x14951",
        "value": "0x0",
        "input": "0x4468726a0000000000000000000000000000000000000000000000000000000000000000",
        "nonce": "0x40",
        "chainId": "0x7a69"
      },
      "additionalContracts": [],
      "isFixedGasLimit": false
    }
  ],
  "receipts": [
    {
      "status": "0x1",
      "cumulativeGasUsed": "0xee6c",
      "logs": [],
      "logsBloom": "0x00000000000000000000000000000000000000000000000000000000000000000000000000000000000000000000000000000000000000000000000000000000000000000000000000000000000000000000000000000000000000000000000000000000000000000000000000000000000000000000000000000000000000000000000000000000000000000000000000000000000000000000000000000000000000000000000000000000000000000000000000000000000000000000000000000000000000000000000000000000000000000000000000000000000000000000000000000000000000000000000000000000000000000000000000000000",
      "type": "0x2",
      "transactionHash": "0xfae81125b917d0d8d4b855de218142be46c5a54d7fb71bec4b1a4d4a9e9c389e",
      "transactionIndex": "0x0",
      "blockHash": "0xaea5918f55110f116fccbd0f44dcce28177e775a210bc7e9fd8c9cb7f6a5cf4e",
      "blockNumber": "0x88",
      "gasUsed": "0xee6c",
      "effectiveGasPrice": "0x3b9aca1b",
      "blobGasPrice": "0x1",
      "from": "0xf39fd6e51aad88f6f4ce6ab8827279cfffb92266",
      "to": "0xcd8a1c3ba11cf5ecfa6267617243239504a98d90",
      "contractAddress": null
    }
  ],
  "libraries": [],
  "pending": [],
  "returns": {},
  "timestamp": 1748606991,
  "chain": 31337,
  "commit": "15ebb5d"
}