{
  "transactions": [
    {
      "hash": "0x6cf9f267dff625415c48bd33dfcc8a57125f812e732fda4b01da5119ee5d06a4",
      "transactionType": "CALL",
      "contractName": null,
      "contractAddress": "0xcd8a1c3ba11cf5ecfa6267617243239504a98d90",
      "function": "setImageId(uint32)",
      "arguments": [
        "0"
      ],
      "transaction": {
        "from": "0xf39fd6e51aad88f6f4ce6ab8827279cfffb92266",
        "to": "0xcd8a1c3ba11cf5ecfa6267617243239504a98d90",
        "gas": "0x14951",
        "value": "0x0",
        "input": "0x4468726a0000000000000000000000000000000000000000000000000000000000000000",
        "nonce": "0x40",
        "chainId": "0x7a69"
      },
      "additionalContracts": [],
      "isFixedGasLimit": false
    }
  ],
  "receipts": [
    {
      "status": "0x1",
      "cumulativeGasUsed": "0xee6c",
      "logs": [],
      "logsBloom": "0x00000000000000000000000000000000000000000000000000000000000000000000000000000000000000000000000000000000000000000000000000000000000000000000000000000000000000000000000000000000000000000000000000000000000000000000000000000000000000000000000000000000000000000000000000000000000000000000000000000000000000000000000000000000000000000000000000000000000000000000000000000000000000000000000000000000000000000000000000000000000000000000000000000000000000000000000000000000000000000000000000000000000000000000000000000000",
      "type": "0x2",
      "transactionHash": "0x6cf9f267dff625415c48bd33dfcc8a57125f812e732fda4b01da5119ee5d06a4",
      "transactionIndex": "0x0",
      "blockHash": "0x2b1dfd1e767ba8b4fe85406e7656bbc732c157cdc40b2208dc7edf09f0fa8188",
      "blockNumber": "0x87",
      "gasUsed": "0xee6c",
      "effectiveGasPrice": "0x3b9aca1e",
      "blobGasPrice": "0x1",
      "from": "0xf39fd6e51aad88f6f4ce6ab8827279cfffb92266",
      "to": "0xcd8a1c3ba11cf5ecfa6267617243239504a98d90",
      "contractAddress": null
    }
  ],
  "libraries": [],
  "pending": [],
  "returns": {},
  "timestamp": 1748604851,
  "chain": 31337,
  "commit": "15ebb5d"
}