{
  "transactions": [
    {
      "hash": "0xbb3c044c4e9036893289828f2cf846060d95d97558165e016142ba7902ae1140",
      "transactionType": "CALL",
      "contractName": null,
      "contractAddress": "0xd8a5a9b31c3c0232e196d518e89fd8bf83acad43",
      "function": "setImageId(uint32)",
      "arguments": [
        "0"
      ],
      "transaction": {
        "from": "0xf39fd6e51aad88f6f4ce6ab8827279cfffb92266",
        "to": "0xd8a5a9b31c3c0232e196d518e89fd8bf83acad43",
        "gas": "0x10e06",
        "value": "0x0",
        "input": "0x4468726a0000000000000000000000000000000000000000000000000000000000000000",
        "nonce": "0x55",
        "chainId": "0x7a69"
      },
      "additionalContracts": [],
      "isFixedGasLimit": false
    }
  ],
  "receipts": [
    {
      "status": "0x1",
      "cumulativeGasUsed": "0xc37f",
      "logs": [],
      "logsBloom": "0x00000000000000000000000000000000000000000000000000000000000000000000000000000000000000000000000000000000000000000000000000000000000000000000000000000000000000000000000000000000000000000000000000000000000000000000000000000000000000000000000000000000000000000000000000000000000000000000000000000000000000000000000000000000000000000000000000000000000000000000000000000000000000000000000000000000000000000000000000000000000000000000000000000000000000000000000000000000000000000000000000000000000000000000000000000000",
      "type": "0x2",
      "transactionHash": "0xbb3c044c4e9036893289828f2cf846060d95d97558165e016142ba7902ae1140",
      "transactionIndex": "0x0",
      "blockHash": "0xb21e20b81a63563e60f393e53a55202341e9ff27b4fbfe5c04202d6ef03976ff",
      "blockNumber": "0x2f1b",
      "gasUsed": "0xc37f",
      "effectiveGasPrice": "0x3b9aca07",
      "blobGasPrice": "0x1",
      "from": "0xf39fd6e51aad88f6f4ce6ab8827279cfffb92266",
      "to": "0xd8a5a9b31c3c0232e196d518e89fd8bf83acad43",
      "contractAddress": null
    }
  ],
  "libraries": [],
  "pending": [],
  "returns": {},
  "timestamp": 1750865168,
  "chain": 31337,
  "commit": "04b637a"
}