{
  "transactions": [
    {
      "hash": "0x7d4ce748fbb3853a47232d11cf822eef9771e1a3d8d3c34deff61d500b71d7bb",
      "transactionType": "CALL",
      "contractName": null,
      "contractAddress": "0xcd8a1c3ba11cf5ecfa6267617243239504a98d90",
      "function": "setImageId(uint32)",
      "arguments": [
        "0"
      ],
      "transaction": {
        "from": "0xf39fd6e51aad88f6f4ce6ab8827279cfffb92266",
        "to": "0xcd8a1c3ba11cf5ecfa6267617243239504a98d90",
        "gas": "0x14951",
        "value": "0x0",
        "input": "0x4468726a0000000000000000000000000000000000000000000000000000000000000000",
        "nonce": "0x40",
        "chainId": "0x7a69"
      },
      "additionalContracts": [],
      "isFixedGasLimit": false
    }
  ],
  "receipts": [
    {
      "status": "0x1",
      "cumulativeGasUsed": "0xee6c",
      "logs": [],
      "logsBloom": "0x00000000000000000000000000000000000000000000000000000000000000000000000000000000000000000000000000000000000000000000000000000000000000000000000000000000000000000000000000000000000000000000000000000000000000000000000000000000000000000000000000000000000000000000000000000000000000000000000000000000000000000000000000000000000000000000000000000000000000000000000000000000000000000000000000000000000000000000000000000000000000000000000000000000000000000000000000000000000000000000000000000000000000000000000000000000",
      "type": "0x2",
      "transactionHash": "0x7d4ce748fbb3853a47232d11cf822eef9771e1a3d8d3c34deff61d500b71d7bb",
      "transactionIndex": "0x0",
      "blockHash": "0x4d40a91ebdad691b7da16e4ef8f3674a4d1b1fde069e93b18ceca98f457d2c8c",
      "blockNumber": "0x85",
      "gasUsed": "0xee6c",
      "effectiveGasPrice": "0x3b9aca26",
      "blobGasPrice": "0x1",
      "from": "0xf39fd6e51aad88f6f4ce6ab8827279cfffb92266",
      "to": "0xcd8a1c3ba11cf5ecfa6267617243239504a98d90",
      "contractAddress": null
    }
  ],
  "libraries": [],
  "pending": [],
  "returns": {},
  "timestamp": 1748610831,
  "chain": 31337,
  "commit": "15ebb5d"
}