{
  "transactions": [
    {
      "hash": "0x26c9b0391eda833359fedd687ac6e975c2b27747c28ee20e0f15c6676220a0b7",
      "transactionType": "CALL",
      "contractName": null,
      "contractAddress": "0xd8a5a9b31c3c0232e196d518e89fd8bf83acad43",
      "function": "setImageId(uint32)",
      "arguments": [
        "0"
      ],
      "transaction": {
        "from": "0xf39fd6e51aad88f6f4ce6ab8827279cfffb92266",
        "to": "0xd8a5a9b31c3c0232e196d518e89fd8bf83acad43",
        "gas": "0x10e06",
        "value": "0x0",
        "input": "0x4468726a0000000000000000000000000000000000000000000000000000000000000000",
        "nonce": "0x55",
        "chainId": "0x7a69"
      },
      "additionalContracts": [],
      "isFixedGasLimit": false
    }
  ],
  "receipts": [
    {
      "status": "0x1",
      "cumulativeGasUsed": "0xc37f",
      "logs": [],
      "logsBloom": "0x00000000000000000000000000000000000000000000000000000000000000000000000000000000000000000000000000000000000000000000000000000000000000000000000000000000000000000000000000000000000000000000000000000000000000000000000000000000000000000000000000000000000000000000000000000000000000000000000000000000000000000000000000000000000000000000000000000000000000000000000000000000000000000000000000000000000000000000000000000000000000000000000000000000000000000000000000000000000000000000000000000000000000000000000000000000",
      "type": "0x2",
      "transactionHash": "0x26c9b0391eda833359fedd687ac6e975c2b27747c28ee20e0f15c6676220a0b7",
      "transactionIndex": "0x0",
      "blockHash": "0x519a153ad163733403e6a3d117c8b57b4efc48ab232bb9d842e32b18b9999fc6",
      "blockNumber": "0x44",
      "gasUsed": "0xc37f",
      "effectiveGasPrice": "0x3b9e5269",
      "blobGasPrice": "0x1",
      "from": "0xf39fd6e51aad88f6f4ce6ab8827279cfffb92266",
      "to": "0xd8a5a9b31c3c0232e196d518e89fd8bf83acad43",
      "contractAddress": null
    }
  ],
  "libraries": [],
  "pending": [],
  "returns": {},
  "timestamp": 1751384194,
  "chain": 31337,
  "commit": "bb18d9f"
}