{
  "transactions": [
    {
      "hash": "0x692d8794d50efd04bfa6600e2d325b996cbc95658a0491e570c8b467619fa802",
      "transactionType": "CALL",
      "contractName": null,
      "contractAddress": "0xd8a5a9b31c3c0232e196d518e89fd8bf83acad43",
      "function": "setImageId(uint32)",
      "arguments": [
        "0"
      ],
      "transaction": {
        "from": "0xf39fd6e51aad88f6f4ce6ab8827279cfffb92266",
        "to": "0xd8a5a9b31c3c0232e196d518e89fd8bf83acad43",
        "gas": "0x10e06",
        "value": "0x0",
        "input": "0x4468726a0000000000000000000000000000000000000000000000000000000000000000",
        "nonce": "0x5d",
        "chainId": "0x7a69"
      },
      "additionalContracts": [],
      "isFixedGasLimit": false
    }
  ],
  "receipts": [
    {
      "status": "0x1",
      "cumulativeGasUsed": "0xc37f",
      "logs": [],
      "logsBloom": "0x00000000000000000000000000000000000000000000000000000000000000000000000000000000000000000000000000000000000000000000000000000000000000000000000000000000000000000000000000000000000000000000000000000000000000000000000000000000000000000000000000000000000000000000000000000000000000000000000000000000000000000000000000000000000000000000000000000000000000000000000000000000000000000000000000000000000000000000000000000000000000000000000000000000000000000000000000000000000000000000000000000000000000000000000000000000",
      "type": "0x2",
      "transactionHash": "0x692d8794d50efd04bfa6600e2d325b996cbc95658a0491e570c8b467619fa802",
      "transactionIndex": "0x0",
      "blockHash": "0xf4fd19e8310563203d809b7315956c00f6c7000da4b5df75d3fef0297b4ed546",
      "blockNumber": "0x2f1d",
      "gasUsed": "0xc37f",
      "effectiveGasPrice": "0x3b9aca07",
      "blobGasPrice": "0x1",
      "from": "0xf39fd6e51aad88f6f4ce6ab8827279cfffb92266",
      "to": "0xd8a5a9b31c3c0232e196d518e89fd8bf83acad43",
      "contractAddress": null
    }
  ],
  "libraries": [],
  "pending": [],
  "returns": {},
  "timestamp": 1749832104,
  "chain": 31337,
  "commit": "a832035"
}