{
  "transactions": [
    {
      "hash": "0x39cfa9ff28392dc1715b291b71747f21e835a004fc89c575fae486f1feff5e48",
      "transactionType": "CALL",
      "contractName": null,
      "contractAddress": "0xdac190af97c95a1be4c77e41bb577c6f35f2598a",
      "function": "owner()",
      "arguments": [],
      "transaction": {
        "from": "0x679a295b982e75c1060bce840ca8044ffd340eaf",
        "to": "0xdac190af97c95a1be4c77e41bb577c6f35f2598a",
        "gas": "0xaf98",
        "value": "0x0",
        "input": "0x8da5cb5b",
        "nonce": "0x124",
        "chainId": "0x14a34"
      },
      "additionalContracts": [],
      "isFixedGasLimit": false
    },
    {
      "hash": "0x794268451e0edcfda5ff1e50a09fdd270723e73ee00cf2bade8bec6861f31953",
      "transactionType": "CALL",
      "contractName": null,
      "contractAddress": "0xdac190af97c95a1be4c77e41bb577c6f35f2598a",
      "function": "submitComputeRequest(bytes32,bytes32)",
      "arguments": [
        "0x0000000000000000000000000000000000000000000000000000000000000000",
        "0x0000000000000000000000000000000000000000000000000000000000000000"
      ],
      "transaction": {
        "from": "0x679a295b982e75c1060bce840ca8044ffd340eaf",
        "to": "0xdac190af97c95a1be4c77e41bb577c6f35f2598a",
        "gas": "0x26fdc",
        "value": "0x64",
        "input": "0xca1fd09700000000000000000000000000000000000000000000000000000000000000000000000000000000000000000000000000000000000000000000000000000000",
        "nonce": "0x125",
        "chainId": "0x14a34"
      },
      "additionalContracts": [],
      "isFixedGasLimit": false
    },
    {
      "hash": "0x3916dbf5e9e31278e8fbee680df7066521f5ca417bfca2efcdaabf7ac13288e3",
      "transactionType": "CALL",
      "contractName": null,
      "contractAddress": "0xdac190af97c95a1be4c77e41bb577c6f35f2598a",
      "function": "submitComputeResult(uint256,bytes32,bytes32)",
      "arguments": [
        "1",
        "0x0000000000000000000000000000000000000000000000000000000000000000",
        "0x0000000000000000000000000000000000000000000000000000000000000000"
      ],
      "transaction": {
        "from": "0x679a295b982e75c1060bce840ca8044ffd340eaf",
        "to": "0xdac190af97c95a1be4c77e41bb577c6f35f2598a",
        "gas": "0x23d12",
        "value": "0x0",
        "input": "0x6d5def43000000000000000000000000000000000000000000000000000000000000000100000000000000000000000000000000000000000000000000000000000000000000000000000000000000000000000000000000000000000000000000000000",
        "nonce": "0x126",
        "chainId": "0x14a34"
      },
      "additionalContracts": [],
      "isFixedGasLimit": false
    }
  ],
  "receipts": [
    {
      "status": "0x1",
      "cumulativeGasUsed": "0x4f6ba2",
      "logs": [],
      "logsBloom": "0x00000000000000000000000000000000000000000000000000000000000000000000000000000000000000000000000000000000000000000000000000000000000000000000000000000000000000000000000000000000000000000000000000000000000000000000000000000000000000000000000000000000000000000000000000000000000000000000000000000000000000000000000000000000000000000000000000000000000000000000000000000000000000000000000000000000000000000000000000000000000000000000000000000000000000000000000000000000000000000000000000000000000000000000000000000000",
      "type": "0x2",
      "transactionHash": "0x39cfa9ff28392dc1715b291b71747f21e835a004fc89c575fae486f1feff5e48",
      "transactionIndex": "0x19",
      "blockHash": "0xab27be42d70b08d2d389294d96d25aa0cede15fe18ea4c28dfae00682d52087f",
      "blockNumber": "0x17789bd",
      "gasUsed": "0x7811",
      "effectiveGasPrice": "0x1baef",
      "from": "0x679a295b982e75c1060bce840ca8044ffd340eaf",
      "to": "0xdac190af97c95a1be4c77e41bb577c6f35f2598a",
      "contractAddress": null,
      "l1BaseFeeScalar": "0x44d",
      "l1BlobBaseFee": "0x3",
      "l1BlobBaseFeeScalar": "0xa118b",
      "l1Fee": "0xce1020",
      "l1GasPrice": "0x74f923",
      "l1GasUsed": "0x640"
    },
    {
      "status": "0x1",
      "cumulativeGasUsed": "0x511635",
      "logs": [
        {
          "address": "0xdac190af97c95a1be4c77e41bb577c6f35f2598a",
          "topics": [
            "0xf4fd13e9795fdb02e95ab0e9fb7ac33e3f63dd1411ab3c2f592a0476c2e74860",
            "0x0000000000000000000000000000000000000000000000000000000000000001"
          ],
          "data": "0x00000000000000000000000000000000000000000000000000000000000000000000000000000000000000000000000000000000000000000000000000000000",
          "blockHash": "0xab27be42d70b08d2d389294d96d25aa0cede15fe18ea4c28dfae00682d52087f",
          "blockNumber": "0x17789bd",
          "transactionHash": "0x794268451e0edcfda5ff1e50a09fdd270723e73ee00cf2bade8bec6861f31953",
          "transactionIndex": "0x1a",
          "logIndex": "0x56",
          "removed": false
        }
      ],
      "logsBloom": "0x00000000000000000000000000000000000000000000000000000000000000000000200000000000000000000000000000000000000000000002000000040000000000000000000000000000000000000000000000040000000000000000000000000000000000000000000000000000000000000000000000000000000000000000000000000000000000000000000000000000000000000000000000000000000000000000000000008000000000000000080000000000000400000000000000000000000000000000000000000000000000000000000000000000000040000000000000000040000000000000000000000000000000000000000000000000",
      "type": "0x2",
      "transactionHash": "0x794268451e0edcfda5ff1e50a09fdd270723e73ee00cf2bade8bec6861f31953",
      "transactionIndex": "0x1a",
      "blockHash": "0xab27be42d70b08d2d389294d96d25aa0cede15fe18ea4c28dfae00682d52087f",
      "blockNumber": "0x17789bd",
      "gasUsed": "0x1aa93",
      "effectiveGasPrice": "0x1baef",
      "from": "0x679a295b982e75c1060bce840ca8044ffd340eaf",
      "to": "0xdac190af97c95a1be4c77e41bb577c6f35f2598a",
      "contractAddress": null,
      "l1BaseFeeScalar": "0x44d",
      "l1BlobBaseFee": "0x3",
      "l1BlobBaseFeeScalar": "0xa118b",
      "l1Fee": "0xce1020",
      "l1GasPrice": "0x74f923",
      "l1GasUsed": "0x640"
    },
    {
      "status": "0x1",
      "cumulativeGasUsed": "0x52b51a",
      "logs": [
        {
          "address": "0xdac190af97c95a1be4c77e41bb577c6f35f2598a",
          "topics": [
            "0xfd68f7f3c8ddad7a52f978401f0a0fdc96f9d2a36071a48ac577195cffddd4d2",
            "0x0000000000000000000000000000000000000000000000000000000000000001"
          ],
          "data": "0x00000000000000000000000000000000000000000000000000000000000000000000000000000000000000000000000000000000000000000000000000000000",
          "blockHash": "0xab27be42d70b08d2d389294d96d25aa0cede15fe18ea4c28dfae00682d52087f",
          "blockNumber": "0x17789bd",
          "transactionHash": "0x3916dbf5e9e31278e8fbee680df7066521f5ca417bfca2efcdaabf7ac13288e3",
          "transactionIndex": "0x1b",
          "logIndex": "0x57",
          "removed": false
        }
      ],
      "logsBloom": "0x00000000000000000000000000000000000000000000000000000000000000000000000000000000000002000000000000000000000000000002000000040000000000000000000000000000000000000000000000040000000000000000000000000000000000000000000000000000000000000000000000000000000000000000000000000000001000000000000000000000000000000000000000000000000000000000000000000000000000000000080000010000000000000000000000000000000000000000000000000000000000000000000000000000000040000000000000000040000000000000000000000000000000000000000000000000",
      "type": "0x2",
      "transactionHash": "0x3916dbf5e9e31278e8fbee680df7066521f5ca417bfca2efcdaabf7ac13288e3",
      "transactionIndex": "0x1b",
      "blockHash": "0xab27be42d70b08d2d389294d96d25aa0cede15fe18ea4c28dfae00682d52087f",
      "blockNumber": "0x17789bd",
      "gasUsed": "0x19ee5",
      "effectiveGasPrice": "0x1baef",
      "from": "0x679a295b982e75c1060bce840ca8044ffd340eaf",
      "to": "0xdac190af97c95a1be4c77e41bb577c6f35f2598a",
      "contractAddress": null,
      "l1BaseFeeScalar": "0x44d",
      "l1BlobBaseFee": "0x3",
      "l1BlobBaseFeeScalar": "0xa118b",
      "l1Fee": "0xce1020",
      "l1GasPrice": "0x74f923",
      "l1GasUsed": "0x640"
    }
  ],
  "libraries": [],
  "pending": [],
  "returns": {},
  "timestamp": 1744990811,
  "chain": 84532,
  "commit": "677146b"
}