{
  "transactions": [
    {
      "hash": "0x1a37e0f2569b8511104744ca2b33e25acb5fc1b2aee92d5145996172503e6c0e",
      "transactionType": "CALL",
      "contractName": null,
      "contractAddress": "0x4817daf9ce589f6ffcb563342aa56c8de9aeb973",
      "function": "submitComputeRequest(bytes32,bytes32)",
      "arguments": [
        "0x0000000000000000000000000000000000000000000000000000000000000000",
        "0x0000000000000000000000000000000000000000000000000000000000000000"
      ],
      "transaction": {
        "from": "0x679a295b982e75c1060bce840ca8044ffd340eaf",
        "to": "0x4817daf9ce589f6ffcb563342aa56c8de9aeb973",
        "gas": "0x26ff3",
        "value": "0x0",
        "input": "0xca1fd09700000000000000000000000000000000000000000000000000000000000000000000000000000000000000000000000000000000000000000000000000000000",
        "nonce": "0x132",
        "chainId": "0x14a34"
      },
      "additionalContracts": [],
      "isFixedGasLimit": false
    },
    {
      "hash": "0xa7c28a0dc63603c10bf92b5120f7e9c23681bcd84e993fe2c5fb6c15da128346",
      "transactionType": "CALL",
      "contractName": null,
      "contractAddress": "0x4817daf9ce589f6ffcb563342aa56c8de9aeb973",
      "function": "submitComputeResult(uint256,bytes32,bytes32)",
      "arguments": [
        "1",
        "0x0000000000000000000000000000000000000000000000000000000000000000",
        "0x0000000000000000000000000000000000000000000000000000000000000000"
      ],
      "transaction": {
        "from": "0x679a295b982e75c1060bce840ca8044ffd340eaf",
        "to": "0x4817daf9ce589f6ffcb563342aa56c8de9aeb973",
        "gas": "0x23d12",
        "value": "0x0",
        "input": "0x6d5def43000000000000000000000000000000000000000000000000000000000000000100000000000000000000000000000000000000000000000000000000000000000000000000000000000000000000000000000000000000000000000000000000",
        "nonce": "0x133",
        "chainId": "0x14a34"
      },
      "additionalContracts": [],
      "isFixedGasLimit": false
    },
    {
      "hash": "0xed5ea99f6569bfd3d0b86cb36908dc11dfa873c26a38ccdf3041fca219bba0cd",
      "transactionType": "CALL",
      "contractName": null,
      "contractAddress": "0x4817daf9ce589f6ffcb563342aa56c8de9aeb973",
      "function": "submitChallenge(uint256)",
      "arguments": [
        "1"
      ],
      "transaction": {
        "from": "0x679a295b982e75c1060bce840ca8044ffd340eaf",
        "to": "0x4817daf9ce589f6ffcb563342aa56c8de9aeb973",
        "gas": "0x26c6c",
        "value": "0x0",
        "input": "0x72b5ddcf0000000000000000000000000000000000000000000000000000000000000001",
        "nonce": "0x134",
        "chainId": "0x14a34"
      },
      "additionalContracts": [],
      "isFixedGasLimit": false
    }
  ],
  "receipts": [
    {
      "status": "0x1",
      "cumulativeGasUsed": "0x8361dc",
      "logs": [
        {
          "address": "0x4817daf9ce589f6ffcb563342aa56c8de9aeb973",
          "topics": [
            "0xf4fd13e9795fdb02e95ab0e9fb7ac33e3f63dd1411ab3c2f592a0476c2e74860",
            "0x0000000000000000000000000000000000000000000000000000000000000001"
          ],
          "data": "0x00000000000000000000000000000000000000000000000000000000000000000000000000000000000000000000000000000000000000000000000000000000",
          "blockHash": "0x88c6fc46d3a2ab1ca4503ea9dc3d39777fe8eee48e2b9a7b25b44e9b010e2c49",
          "blockNumber": "0x1778a29",
          "transactionHash": "0x1a37e0f2569b8511104744ca2b33e25acb5fc1b2aee92d5145996172503e6c0e",
          "transactionIndex": "0x27",
          "logIndex": "0x79",
          "removed": false
        }
      ],
      "logsBloom": "0x00000000000000000000000000000000000000000000000000000000000000000000200000000000000000200000000000000000000000000000000000040000000000000000000000000000000000000000000000040000000000000200000000000000000000000000000000000000000000000000000000000000000000000000000000000000000000000000000000000000000000000000000000000000000000000000000000008000000000000000000000000000000400000000000000000000000000000000000000000000000000000000000020000000000040000000000000000000000000000000000000000000000000000000000000000000",
      "type": "0x2",
      "transactionHash": "0x1a37e0f2569b8511104744ca2b33e25acb5fc1b2aee92d5145996172503e6c0e",
      "transactionIndex": "0x27",
      "blockHash": "0x88c6fc46d3a2ab1ca4503ea9dc3d39777fe8eee48e2b9a7b25b44e9b010e2c49",
      "blockNumber": "0x1778a29",
      "gasUsed": "0x1aaa2",
      "effectiveGasPrice": "0x1b3bc",
      "from": "0x679a295b982e75c1060bce840ca8044ffd340eaf",
      "to": "0x4817daf9ce589f6ffcb563342aa56c8de9aeb973",
      "contractAddress": null,
      "l1BaseFeeScalar": "0x44d",
      "l1BlobBaseFee": "0x3",
      "l1BlobBaseFeeScalar": "0xa118b",
      "l1Fee": "0xa63639",
      "l1GasPrice": "0x5e59de",
      "l1GasUsed": "0x640"
    },
    {
      "status": "0x1",
      "cumulativeGasUsed": "0x8500c1",
      "logs": [
        {
          "address": "0x4817daf9ce589f6ffcb563342aa56c8de9aeb973",
          "topics": [
            "0xfd68f7f3c8ddad7a52f978401f0a0fdc96f9d2a36071a48ac577195cffddd4d2",
            "0x0000000000000000000000000000000000000000000000000000000000000001"
          ],
          "data": "0x00000000000000000000000000000000000000000000000000000000000000000000000000000000000000000000000000000000000000000000000000000000",
          "blockHash": "0x88c6fc46d3a2ab1ca4503ea9dc3d39777fe8eee48e2b9a7b25b44e9b010e2c49",
          "blockNumber": "0x1778a29",
          "transactionHash": "0xa7c28a0dc63603c10bf92b5120f7e9c23681bcd84e993fe2c5fb6c15da128346",
          "transactionIndex": "0x28",
          "logIndex": "0x7a",
          "removed": false
        }
      ],
      "logsBloom": "0x00000000000000000000000000000000000000000000000000000000000000000000000000000000000002200000000000000000000000000000000000040000000000000000000000000000000000000000000000040000000000000200000000000000000000000000000000000000000000000000000000000000000000000000000000000000001000000000000000000000000000000000000000000000000000000000000000000000000000000000000000010000000000000000000000000000000000000000000000000000000000000000000020000000000040000000000000000000000000000000000000000000000000000000000000000000",
      "type": "0x2",
      "transactionHash": "0xa7c28a0dc63603c10bf92b5120f7e9c23681bcd84e993fe2c5fb6c15da128346",
      "transactionIndex": "0x28",
      "blockHash": "0x88c6fc46d3a2ab1ca4503ea9dc3d39777fe8eee48e2b9a7b25b44e9b010e2c49",
      "blockNumber": "0x1778a29",
      "gasUsed": "0x19ee5",
      "effectiveGasPrice": "0x1b3bc",
      "from": "0x679a295b982e75c1060bce840ca8044ffd340eaf",
      "to": "0x4817daf9ce589f6ffcb563342aa56c8de9aeb973",
      "contractAddress": null,
      "l1BaseFeeScalar": "0x44d",
      "l1BlobBaseFee": "0x3",
      "l1BlobBaseFeeScalar": "0xa118b",
      "l1Fee": "0xa63639",
      "l1GasPrice": "0x5e59de",
      "l1GasUsed": "0x640"
    },
    {
      "status": "0x1",
      "cumulativeGasUsed": "0x86a8fa",
      "logs": [
        {
          "address": "0x4817daf9ce589f6ffcb563342aa56c8de9aeb973",
          "topics": [
            "0xfb4749a8bf40d9d3f0fbe28026fedbe06dc90952eba3759c2b3ec0a7d5697f31",
            "0x0000000000000000000000000000000000000000000000000000000000000001"
          ],
          "data": "0x",
          "blockHash": "0x88c6fc46d3a2ab1ca4503ea9dc3d39777fe8eee48e2b9a7b25b44e9b010e2c49",
          "blockNumber": "0x1778a29",
          "transactionHash": "0xed5ea99f6569bfd3d0b86cb36908dc11dfa873c26a38ccdf3041fca219bba0cd",
          "transactionIndex": "0x29",
          "logIndex": "0x7b",
          "removed": false
        },
        {
          "address": "0x4817daf9ce589f6ffcb563342aa56c8de9aeb973",
          "topics": [
            "0xb670713b08c29deb4e717b2ea54619c08de292f37aada3efa88a5b4be35cf3d7",
            "0x0000000000000000000000000000000000000000000000000000000000000001"
          ],
          "data": "0x",
          "blockHash": "0x88c6fc46d3a2ab1ca4503ea9dc3d39777fe8eee48e2b9a7b25b44e9b010e2c49",
          "blockNumber": "0x1778a29",
          "transactionHash": "0xed5ea99f6569bfd3d0b86cb36908dc11dfa873c26a38ccdf3041fca219bba0cd",
          "transactionIndex": "0x29",
          "logIndex": "0x7c",
          "removed": false
        }
      ],
      "logsBloom": "0x00000000000000000000000000000000000000000000001000000000000000000000000000000000000000200000000000040000000000000000000001040000000000000000000000000000000000000000000000040000000000000200000000000000000000000000000000000000000000000000000000000000000000000000000000000000000000000000000000000000000000000000000000000000000000000004000000000000000000000000000000000800000000000000000000000000000000000000000000000000000000000000000020000000000040000000000000000000000000200000000000000000000000000000000000000000",
      "type": "0x2",
      "transactionHash": "0xed5ea99f6569bfd3d0b86cb36908dc11dfa873c26a38ccdf3041fca219bba0cd",
      "transactionIndex": "0x29",
      "blockHash": "0x88c6fc46d3a2ab1ca4503ea9dc3d39777fe8eee48e2b9a7b25b44e9b010e2c49",
      "blockNumber": "0x1778a29",
      "gasUsed": "0x1a839",
      "effectiveGasPrice": "0x1b3bc",
      "from": "0x679a295b982e75c1060bce840ca8044ffd340eaf",
      "to": "0x4817daf9ce589f6ffcb563342aa56c8de9aeb973",
      "contractAddress": null,
      "l1BaseFeeScalar": "0x44d",
      "l1BlobBaseFee": "0x3",
      "l1BlobBaseFeeScalar": "0xa118b",
      "l1Fee": "0xa63639",
      "l1GasPrice": "0x5e59de",
      "l1GasUsed": "0x640"
    }
  ],
  "libraries": [],
  "pending": [],
  "returns": {},
  "timestamp": 1744991027,
  "chain": 84532,
  "commit": "677146b"
}