{
  "transactions": [
    {
      "hash": "0x814183b9c8ca0077d972fb9134171cae62bee0e9f2f8d07769babc2c28ba84ef",
      "transactionType": "CALL",
      "contractName": null,
      "contractAddress": "0x4817daf9ce589f6ffcb563342aa56c8de9aeb973",
      "function": "submitComputeRequest(bytes32,bytes32)",
      "arguments": [
        "0x0000000000000000000000000000000000000000000000000000000000000000",
        "0x0000000000000000000000000000000000000000000000000000000000000000"
      ],
      "transaction": {
        "from": "0x679a295b982e75c1060bce840ca8044ffd340eaf",
        "to": "0x4817daf9ce589f6ffcb563342aa56c8de9aeb973",
        "gas": "0x26ff3",
        "value": "0x0",
        "input": "0xca1fd09700000000000000000000000000000000000000000000000000000000000000000000000000000000000000000000000000000000000000000000000000000000",
        "nonce": "0x135",
        "chainId": "0x14a34"
      },
      "additionalContracts": [],
      "isFixedGasLimit": false
    },
    {
      "hash": "0x385bea26b16753008752e29222bc341f4d63505c289d9a1c1f4b30299373ea09",
      "transactionType": "CALL",
      "contractName": null,
      "contractAddress": "0x4817daf9ce589f6ffcb563342aa56c8de9aeb973",
      "function": "submitComputeResult(uint256,bytes32,bytes32)",
      "arguments": [
        "2",
        "0x0000000000000000000000000000000000000000000000000000000000000000",
        "0x0000000000000000000000000000000000000000000000000000000000000000"
      ],
      "transaction": {
        "from": "0x679a295b982e75c1060bce840ca8044ffd340eaf",
        "to": "0x4817daf9ce589f6ffcb563342aa56c8de9aeb973",
        "gas": "0x23d12",
        "value": "0x0",
        "input": "0x6d5def43000000000000000000000000000000000000000000000000000000000000000200000000000000000000000000000000000000000000000000000000000000000000000000000000000000000000000000000000000000000000000000000000",
        "nonce": "0x136",
        "chainId": "0x14a34"
      },
      "additionalContracts": [],
      "isFixedGasLimit": false
    },
    {
      "hash": "0x91029972ce6f83449acfa478130b6ee3431e54e4c1090ab75341661e9a7c2d9d",
      "transactionType": "CALL",
      "contractName": null,
      "contractAddress": "0x4817daf9ce589f6ffcb563342aa56c8de9aeb973",
      "function": "submitChallenge(uint256)",
      "arguments": [
        "2"
      ],
      "transaction": {
        "from": "0x679a295b982e75c1060bce840ca8044ffd340eaf",
        "to": "0x4817daf9ce589f6ffcb563342aa56c8de9aeb973",
        "gas": "0x26c6c",
        "value": "0x0",
        "input": "0x72b5ddcf0000000000000000000000000000000000000000000000000000000000000002",
        "nonce": "0x137",
        "chainId": "0x14a34"
      },
      "additionalContracts": [],
      "isFixedGasLimit": false
    }
  ],
  "receipts": [
    {
      "status": "0x1",
      "cumulativeGasUsed": "0xcf9749",
      "logs": [
        {
          "address": "0x4817daf9ce589f6ffcb563342aa56c8de9aeb973",
          "topics": [
            "0xf4fd13e9795fdb02e95ab0e9fb7ac33e3f63dd1411ab3c2f592a0476c2e74860",
            "0x0000000000000000000000000000000000000000000000000000000000000002"
          ],
          "data": "0x00000000000000000000000000000000000000000000000000000000000000000000000000000000000000000000000000000000000000000000000000000000",
          "blockHash": "0x632fcf593ce91e5b5cf6be3c540675d2238ee4e2f78c64393bbeaf1ba87ba2ec",
          "blockNumber": "0x1778a3c",
          "transactionHash": "0x814183b9c8ca0077d972fb9134171cae62bee0e9f2f8d07769babc2c28ba84ef",
          "transactionIndex": "0x33",
          "logIndex": "0x68",
          "removed": false
        }
      ],
      "logsBloom": "0x04000000000000000000000000000000000000000000000000000000000000000000200000000000000000200000000000000000000000000000000000000000000000000000000000000000000000000000000000000000000000000200000000000000000000000000000000000000000000000000000000000000000000000000000000000000000000000000000000000000000000000000000000000000000000000000000000008100000000000000000000000000000400000000000000000000000000000000000000000000000000000000000020000000000000000000000000000000000000000000000000000000008000000000000000000000",
      "type": "0x2",
      "transactionHash": "0x814183b9c8ca0077d972fb9134171cae62bee0e9f2f8d07769babc2c28ba84ef",
      "transactionIndex": "0x33",
      "blockHash": "0x632fcf593ce91e5b5cf6be3c540675d2238ee4e2f78c64393bbeaf1ba87ba2ec",
      "blockNumber": "0x1778a3c",
      "gasUsed": "0x1aaa2",
      "effectiveGasPrice": "0x189e6",
      "from": "0x679a295b982e75c1060bce840ca8044ffd340eaf",
      "to": "0x4817daf9ce589f6ffcb563342aa56c8de9aeb973",
      "contractAddress": null,
      "l1BaseFeeScalar": "0x44d",
      "l1BlobBaseFee": "0x4",
      "l1BlobBaseFeeScalar": "0xa118b",
      "l1Fee": "0x9a255d",
      "l1GasPrice": "0x578048",
      "l1GasUsed": "0x640"
    },
    {
      "status": "0x1",
      "cumulativeGasUsed": "0x147919e",
      "logs": [
        {
          "address": "0x4817daf9ce589f6ffcb563342aa56c8de9aeb973",
          "topics": [
            "0xfd68f7f3c8ddad7a52f978401f0a0fdc96f9d2a36071a48ac577195cffddd4d2",
            "0x0000000000000000000000000000000000000000000000000000000000000002"
          ],
          "data": "0x00000000000000000000000000000000000000000000000000000000000000000000000000000000000000000000000000000000000000000000000000000000",
          "blockHash": "0x4b2ef3c60355f8a744174fc5b3585c052b6b8b786a6e261eb59fac20c5ac581e",
          "blockNumber": "0x1778a3d",
          "transactionHash": "0x385bea26b16753008752e29222bc341f4d63505c289d9a1c1f4b30299373ea09",
          "transactionIndex": "0x1f",
          "logIndex": "0x233",
          "removed": false
        }
      ],
      "logsBloom": "0x04000000000000000000000000000000000000000000000000000000000000000000000000000000000002200000000000000000000000000000000000000000000000000000000000000000000000000000000000000000000000000200000000000000000000000000000000000000000000000000000000000000000000000000000000000000001000000000000000000000000000000000000000000000000000000000000000000100000000000000000000010000000000000000000000000000000000000000000000000000000000000000000020000000000000000000000000000000000000000000000000000000008000000000000000000000",
      "type": "0x2",
      "transactionHash": "0x385bea26b16753008752e29222bc341f4d63505c289d9a1c1f4b30299373ea09",
      "transactionIndex": "0x1f",
      "blockHash": "0x4b2ef3c60355f8a744174fc5b3585c052b6b8b786a6e261eb59fac20c5ac581e",
      "blockNumber": "0x1778a3d",
      "gasUsed": "0x19ee5",
      "effectiveGasPrice": "0x189e6",
      "from": "0x679a295b982e75c1060bce840ca8044ffd340eaf",
      "to": "0x4817daf9ce589f6ffcb563342aa56c8de9aeb973",
      "contractAddress": null,
      "l1BaseFeeScalar": "0x44d",
      "l1BlobBaseFee": "0x4",
      "l1BlobBaseFeeScalar": "0xa118b",
      "l1Fee": "0x9a255d",
      "l1GasPrice": "0x578048",
      "l1GasUsed": "0x640"
    },
    {
      "status": "0x1",
      "cumulativeGasUsed": "0x14939d7",
      "logs": [
        {
          "address": "0x4817daf9ce589f6ffcb563342aa56c8de9aeb973",
          "topics": [
            "0xfb4749a8bf40d9d3f0fbe28026fedbe06dc90952eba3759c2b3ec0a7d5697f31",
            "0x0000000000000000000000000000000000000000000000000000000000000002"
          ],
          "data": "0x",
          "blockHash": "0x4b2ef3c60355f8a744174fc5b3585c052b6b8b786a6e261eb59fac20c5ac581e",
          "blockNumber": "0x1778a3d",
          "transactionHash": "0x91029972ce6f83449acfa478130b6ee3431e54e4c1090ab75341661e9a7c2d9d",
          "transactionIndex": "0x20",
          "logIndex": "0x234",
          "removed": false
        },
        {
          "address": "0x4817daf9ce589f6ffcb563342aa56c8de9aeb973",
          "topics": [
            "0xb670713b08c29deb4e717b2ea54619c08de292f37aada3efa88a5b4be35cf3d7",
            "0x0000000000000000000000000000000000000000000000000000000000000002"
          ],
          "data": "0x",
          "blockHash": "0x4b2ef3c60355f8a744174fc5b3585c052b6b8b786a6e261eb59fac20c5ac581e",
          "blockNumber": "0x1778a3d",
          "transactionHash": "0x91029972ce6f83449acfa478130b6ee3431e54e4c1090ab75341661e9a7c2d9d",
          "transactionIndex": "0x20",
          "logIndex": "0x235",
          "removed": false
        }
      ],
      "logsBloom": "0x04000000000000000000000000000000000000000000001000000000000000000000000000000000000000200000000000040000000000000000000001000000000000000000000000000000000000000000000000000000000000000200000000000000000000000000000000000000000000000000000000000000000000000000000000000000000000000000000000000000000000000000000000000000000000000004000000000100000000000000000000000800000000000000000000000000000000000000000000000000000000000000000020000000000000000000000000000000000000200000000000000000008000000000000000000000",
      "type": "0x2",
      "transactionHash": "0x91029972ce6f83449acfa478130b6ee3431e54e4c1090ab75341661e9a7c2d9d",
      "transactionIndex": "0x20",
      "blockHash": "0x4b2ef3c60355f8a744174fc5b3585c052b6b8b786a6e261eb59fac20c5ac581e",
      "blockNumber": "0x1778a3d",
      "gasUsed": "0x1a839",
      "effectiveGasPrice": "0x189e6",
      "from": "0x679a295b982e75c1060bce840ca8044ffd340eaf",
      "to": "0x4817daf9ce589f6ffcb563342aa56c8de9aeb973",
      "contractAddress": null,
      "l1BaseFeeScalar": "0x44d",
      "l1BlobBaseFee": "0x4",
      "l1BlobBaseFeeScalar": "0xa118b",
      "l1Fee": "0x9a255d",
      "l1GasPrice": "0x578048",
      "l1GasUsed": "0x640"
    }
  ],
  "libraries": [],
  "pending": [],
  "returns": {},
  "timestamp": 1744991068,
  "chain": 84532,
  "commit": "677146b"
}