{
  "transactions": [
    {
      "hash": "0x34fa49c0c1023c34f669247eee69c038c8f872402cf5a1577fdc3f426e5dfc4c",
      "transactionType": "CALL",
      "contractName": null,
      "contractAddress": "0xfe6c9dbb8be0f8f68529c689dfc11a22d5aac1cd",
      "function": "submitComputeRequest(bytes32,bytes32)",
      "arguments": [
        "0x0000000000000000000000000000000000000000000000000000000000000000",
        "0x0000000000000000000000000000000000000000000000000000000000000000"
      ],
      "transaction": {
        "from": "0x679a295b982e75c1060bce840ca8044ffd340eaf",
        "to": "0xfe6c9dbb8be0f8f68529c689dfc11a22d5aac1cd",
        "gas": "0x26ff3",
        "value": "0x0",
        "input": "0xca1fd09700000000000000000000000000000000000000000000000000000000000000000000000000000000000000000000000000000000000000000000000000000000",
        "nonce": "0x143",
        "chainId": "0x14a34"
      },
      "additionalContracts": [],
      "isFixedGasLimit": false
    },
    {
      "hash": "0xe42770ebb43812e7208e2c92117f6e35328cdf8c628117903b2ced1e7bda9018",
      "transactionType": "CALL",
      "contractName": null,
      "contractAddress": "0xfe6c9dbb8be0f8f68529c689dfc11a22d5aac1cd",
      "function": "submitComputeResult(uint256,bytes32,bytes32)",
      "arguments": [
        "1",
        "0x0000000000000000000000000000000000000000000000000000000000000000",
        "0x0000000000000000000000000000000000000000000000000000000000000000"
      ],
      "transaction": {
        "from": "0x679a295b982e75c1060bce840ca8044ffd340eaf",
        "to": "0xfe6c9dbb8be0f8f68529c689dfc11a22d5aac1cd",
        "gas": "0x23d12",
        "value": "0x0",
        "input": "0x6d5def43000000000000000000000000000000000000000000000000000000000000000100000000000000000000000000000000000000000000000000000000000000000000000000000000000000000000000000000000000000000000000000000000",
        "nonce": "0x144",
        "chainId": "0x14a34"
      },
      "additionalContracts": [],
      "isFixedGasLimit": false
    },
    {
      "hash": "0x3a2c0d36038222f3edab5958ebc1232190dbaf12d51a3360dced39b7aff51820",
      "transactionType": "CALL",
      "contractName": null,
      "contractAddress": "0xfe6c9dbb8be0f8f68529c689dfc11a22d5aac1cd",
      "function": "submitChallenge(uint256)",
      "arguments": [
        "1"
      ],
      "transaction": {
        "from": "0x679a295b982e75c1060bce840ca8044ffd340eaf",
        "to": "0xfe6c9dbb8be0f8f68529c689dfc11a22d5aac1cd",
        "gas": "0x26c6c",
        "value": "0x0",
        "input": "0x72b5ddcf0000000000000000000000000000000000000000000000000000000000000001",
        "nonce": "0x145",
        "chainId": "0x14a34"
      },
      "additionalContracts": [],
      "isFixedGasLimit": false
    }
  ],
  "receipts": [
    {
      "status": "0x1",
      "cumulativeGasUsed": "0x133b63d",
      "logs": [
        {
          "address": "0xfe6c9dbb8be0f8f68529c689dfc11a22d5aac1cd",
          "topics": [
            "0xf4fd13e9795fdb02e95ab0e9fb7ac33e3f63dd1411ab3c2f592a0476c2e74860",
            "0x0000000000000000000000000000000000000000000000000000000000000001"
          ],
          "data": "0x00000000000000000000000000000000000000000000000000000000000000000000000000000000000000000000000000000000000000000000000000000000",
          "blockHash": "0x8c7a52c5183d074dd88b7c684b7e14351bfb450fe7079e352a96109abe8b407d",
          "blockNumber": "0x1778d64",
          "transactionHash": "0x34fa49c0c1023c34f669247eee69c038c8f872402cf5a1577fdc3f426e5dfc4c",
          "transactionIndex": "0x19",
          "logIndex": "0x1af",
          "removed": false
        }
      ],
      "logsBloom": "0x00000000000000000000000000000000000000000000000000000000000000000000200000000000000000000000000000000000000000000000000000040000000000000000000000000000000000000000000000040000000000000000000000000000040000000000000000000000000000000000000000000000000000000000000000000000000000000000000000000000000000000000000000000000000000000000000000008000000000000000000000000000000400000000000000000000000000000000000000000000000000000000000000000000000040000000000000000000000000400000000000000000000000000000000000000000",
      "type": "0x2",
      "transactionHash": "0x34fa49c0c1023c34f669247eee69c038c8f872402cf5a1577fdc3f426e5dfc4c",
      "transactionIndex": "0x19",
      "blockHash": "0x8c7a52c5183d074dd88b7c684b7e14351bfb450fe7079e352a96109abe8b407d",
      "blockNumber": "0x1778d64",
      "gasUsed": "0x1aaa2",
      "effectiveGasPrice": "0xf4576",
      "from": "0x679a295b982e75c1060bce840ca8044ffd340eaf",
      "to": "0xfe6c9dbb8be0f8f68529c689dfc11a22d5aac1cd",
      "contractAddress": null,
      "l1BaseFeeScalar": "0x44d",
      "l1BlobBaseFee": "0xd",
      "l1BlobBaseFeeScalar": "0xa118b",
      "l1Fee": "0x124cb4",
      "l1GasPrice": "0xa6172",
      "l1GasUsed": "0x640"
    },
    {
      "status": "0x1",
      "cumulativeGasUsed": "0xaa9f29",
      "logs": [
        {
          "address": "0xfe6c9dbb8be0f8f68529c689dfc11a22d5aac1cd",
          "topics": [
            "0xfd68f7f3c8ddad7a52f978401f0a0fdc96f9d2a36071a48ac577195cffddd4d2",
            "0x0000000000000000000000000000000000000000000000000000000000000001"
          ],
          "data": "0x00000000000000000000000000000000000000000000000000000000000000000000000000000000000000000000000000000000000000000000000000000000",
          "blockHash": "0xd5bde37eb2952dfc42bb1ed7509b11175f45e03b1adb9c702699231b512772e4",
          "blockNumber": "0x1778d65",
          "transactionHash": "0xe42770ebb43812e7208e2c92117f6e35328cdf8c628117903b2ced1e7bda9018",
          "transactionIndex": "0x2a",
          "logIndex": "0x32",
          "removed": false
        }
      ],
      "logsBloom": "0x00000000000000000000000000000000000000000000000000000000000000000000000000000000000002000000000000000000000000000000000000040000000000000000000000000000000000000000000000040000000000000000000000000000040000000000000000000000000000000000000000000000000000000000000000000000001000000000000000000000000000000000000000000000000000000000000000000000000000000000000000010000000000000000000000000000000000000000000000000000000000000000000000000000000040000000000000000000000000400000000000000000000000000000000000000000",
      "type": "0x2",
      "transactionHash": "0xe42770ebb43812e7208e2c92117f6e35328cdf8c628117903b2ced1e7bda9018",
      "transactionIndex": "0x2a",
      "blockHash": "0xd5bde37eb2952dfc42bb1ed7509b11175f45e03b1adb9c702699231b512772e4",
      "blockNumber": "0x1778d65",
      "gasUsed": "0x19ee5",
      "effectiveGasPrice": "0xf4577",
      "from": "0x679a295b982e75c1060bce840ca8044ffd340eaf",
      "to": "0xfe6c9dbb8be0f8f68529c689dfc11a22d5aac1cd",
      "contractAddress": null,
      "l1BaseFeeScalar": "0x44d",
      "l1BlobBaseFee": "0xd",
      "l1BlobBaseFeeScalar": "0xa118b",
      "l1Fee": "0x124cb4",
      "l1GasPrice": "0xa6172",
      "l1GasUsed": "0x640"
    },
    {
      "status": "0x1",
      "cumulativeGasUsed": "0xac4762",
      "logs": [
        {
          "address": "0xfe6c9dbb8be0f8f68529c689dfc11a22d5aac1cd",
          "topics": [
            "0xfb4749a8bf40d9d3f0fbe28026fedbe06dc90952eba3759c2b3ec0a7d5697f31",
            "0x0000000000000000000000000000000000000000000000000000000000000001"
          ],
          "data": "0x",
          "blockHash": "0xd5bde37eb2952dfc42bb1ed7509b11175f45e03b1adb9c702699231b512772e4",
          "blockNumber": "0x1778d65",
          "transactionHash": "0x3a2c0d36038222f3edab5958ebc1232190dbaf12d51a3360dced39b7aff51820",
          "transactionIndex": "0x2b",
          "logIndex": "0x33",
          "removed": false
        },
        {
          "address": "0xfe6c9dbb8be0f8f68529c689dfc11a22d5aac1cd",
          "topics": [
            "0xb670713b08c29deb4e717b2ea54619c08de292f37aada3efa88a5b4be35cf3d7",
            "0x0000000000000000000000000000000000000000000000000000000000000001"
          ],
          "data": "0x",
          "blockHash": "0xd5bde37eb2952dfc42bb1ed7509b11175f45e03b1adb9c702699231b512772e4",
          "blockNumber": "0x1778d65",
          "transactionHash": "0x3a2c0d36038222f3edab5958ebc1232190dbaf12d51a3360dced39b7aff51820",
          "transactionIndex": "0x2b",
          "logIndex": "0x34",
          "removed": false
        }
      ],
      "logsBloom": "0x00000000000000000000000000000000000000000000001000000000000000000000000000000000000000000000000000040000000000000000000001040000000000000000000000000000000000000000000000040000000000000000000000000000040000000000000000000000000000000000000000000000000000000000000000000000000000000000000000000000000000000000000000000000000000000004000000000000000000000000000000000800000000000000000000000000000000000000000000000000000000000000000000000000000040000000000000000000000000600000000000000000000000000000000000000000",
      "type": "0x2",
      "transactionHash": "0x3a2c0d36038222f3edab5958ebc1232190dbaf12d51a3360dced39b7aff51820",
      "transactionIndex": "0x2b",
      "blockHash": "0xd5bde37eb2952dfc42bb1ed7509b11175f45e03b1adb9c702699231b512772e4",
      "blockNumber": "0x1778d65",
      "gasUsed": "0x1a839",
      "effectiveGasPrice": "0xf4577",
      "from": "0x679a295b982e75c1060bce840ca8044ffd340eaf",
      "to": "0xfe6c9dbb8be0f8f68529c689dfc11a22d5aac1cd",
      "contractAddress": null,
      "l1BaseFeeScalar": "0x44d",
      "l1BlobBaseFee": "0xd",
      "l1BlobBaseFeeScalar": "0xa118b",
      "l1Fee": "0x124cb4",
      "l1GasPrice": "0xa6172",
      "l1GasUsed": "0x640"
    }
  ],
  "libraries": [],
  "pending": [],
  "returns": {},
  "timestamp": 1744992683,
  "chain": 84532,
  "commit": "677146b"
}