{
  "transactions": [
    {
      "hash": "0x74b86d69cd1d662f06cf1d24e6f5c7b0918b382f4a502daa30c840c97ae19edd",
      "transactionType": "CALL",
      "contractName": null,
      "contractAddress": "0xd8a5a9b31c3c0232e196d518e89fd8bf83acad43",
      "function": "setImageId(uint32)",
      "arguments": [
        "0"
      ],
      "transaction": {
        "from": "0x679a295b982e75c1060bce840ca8044ffd340eaf",
        "to": "0xd8a5a9b31c3c0232e196d518e89fd8bf83acad43",
        "gas": "0x8190",
        "value": "0x0",
        "input": "0x4468726a0000000000000000000000000000000000000000000000000000000000000000",
        "nonce": "0x28a",
        "chainId": "0x4268"
      },
      "additionalContracts": [],
      "isFixedGasLimit": false
    }
  ],
  "receipts": [
    {
      "status": "0x1",
      "cumulativeGasUsed": "0x2b583c4",
      "logs": [],
      "logsBloom": "0x00000000000000000000000000000000000000000000000000000000000000000000000000000000000000000000000000000000000000000000000000000000000000000000000000000000000000000000000000000000000000000000000000000000000000000000000000000000000000000000000000000000000000000000000000000000000000000000000000000000000000000000000000000000000000000000000000000000000000000000000000000000000000000000000000000000000000000000000000000000000000000000000000000000000000000000000000000000000000000000000000000000000000000000000000000000",
      "type": "0x2",
      "transactionHash": "0x74b86d69cd1d662f06cf1d24e6f5c7b0918b382f4a502daa30c840c97ae19edd",
      "transactionIndex": "0xd0",
      "blockHash": "0x2a64b2f86edd27e6dbd483bfebc74317880efa3fe733dcff07e961e81fb6c45e",
      "blockNumber": "0x3e25aa",
      "gasUsed": "0x5dce",
      "effectiveGasPrice": "0xf424f",
      "from": "0x679a295b982e75c1060bce840ca8044ffd340eaf",
      "to": "0xd8a5a9b31c3c0232e196d518e89fd8bf83acad43",
      "contractAddress": null
    }
  ],
  "libraries": [],
  "pending": [],
  "returns": {},
  "timestamp": 1751039114,
  "chain": 17000,
  "commit": "741d214"
}