{
  "transactions": [
    {
      "hash": "0x3207089e50cc28a3aeaac1f9c2caab556889b395a702e3e1c5963da8eaa5b11c",
      "transactionType": "CALL",
      "contractName": null,
      "contractAddress": "0xd8a5a9b31c3c0232e196d518e89fd8bf83acad43",
      "function": "setImageId(uint32)",
      "arguments": [
        "0"
      ],
      "transaction": {
        "from": "0x679a295b982e75c1060bce840ca8044ffd340eaf",
        "to": "0xd8a5a9b31c3c0232e196d518e89fd8bf83acad43",
        "gas": "0x8190",
        "value": "0x0",
        "input": "0x4468726a0000000000000000000000000000000000000000000000000000000000000000",
        "nonce": "0x1d8",
        "chainId": "0x4268"
      },
      "additionalContracts": [],
      "isFixedGasLimit": false
    }
  ],
  "receipts": [
    {
      "status": "0x1",
      "cumulativeGasUsed": "0xfa7804",
      "logs": [],
      "logsBloom": "0x00000000000000000000000000000000000000000000000000000000000000000000000000000000000000000000000000000000000000000000000000000000000000000000000000000000000000000000000000000000000000000000000000000000000000000000000000000000000000000000000000000000000000000000000000000000000000000000000000000000000000000000000000000000000000000000000000000000000000000000000000000000000000000000000000000000000000000000000000000000000000000000000000000000000000000000000000000000000000000000000000000000000000000000000000000000",
      "type": "0x2",
      "transactionHash": "0x3207089e50cc28a3aeaac1f9c2caab556889b395a702e3e1c5963da8eaa5b11c",
      "transactionIndex": "0x84",
      "blockHash": "0xe8082d1c65dd2bc148900e178eca08840c2edd8b3394ec1b382b0ea5883798a9",
      "blockNumber": "0x3e22c3",
      "gasUsed": "0x5dce",
      "effectiveGasPrice": "0x10c8f6",
      "from": "0x679a295b982e75c1060bce840ca8044ffd340eaf",
      "to": "0xd8a5a9b31c3c0232e196d518e89fd8bf83acad43",
      "contractAddress": null
    }
  ],
  "libraries": [],
  "pending": [],
  "returns": {},
  "timestamp": 1751026838,
  "chain": 17000,
  "commit": "741d214"
}