{
  "transactions": [
    {
      "hash": "0x8d6ee3231a73c6d9b3db2f9aa68e4b089155cbc3918e14cd6abb410d07fb0b14",
      "transactionType": "CALL",
      "contractName": null,
      "contractAddress": "0xd8a5a9b31c3c0232e196d518e89fd8bf83acad43",
      "function": "setImageId(uint32)",
      "arguments": [
        "0"
      ],
      "transaction": {
        "from": "0x679a295b982e75c1060bce840ca8044ffd340eaf",
        "to": "0xd8a5a9b31c3c0232e196d518e89fd8bf83acad43",
        "gas": "0x8190",
        "value": "0x0",
        "input": "0x4468726a0000000000000000000000000000000000000000000000000000000000000000",
        "nonce": "0x22f",
        "chainId": "0x4268"
      },
      "additionalContracts": [],
      "isFixedGasLimit": false
    }
  ],
  "receipts": [
    {
      "status": "0x1",
      "cumulativeGasUsed": "0xf39ba5",
      "logs": [],
      "logsBloom": "0x00000000000000000000000000000000000000000000000000000000000000000000000000000000000000000000000000000000000000000000000000000000000000000000000000000000000000000000000000000000000000000000000000000000000000000000000000000000000000000000000000000000000000000000000000000000000000000000000000000000000000000000000000000000000000000000000000000000000000000000000000000000000000000000000000000000000000000000000000000000000000000000000000000000000000000000000000000000000000000000000000000000000000000000000000000000",
      "type": "0x2",
      "transactionHash": "0x8d6ee3231a73c6d9b3db2f9aa68e4b089155cbc3918e14cd6abb410d07fb0b14",
      "transactionIndex": "0x3a",
      "blockHash": "0x6de633c3c09679df442885df9ade68edfa632df09ae9e042c9fc0baffd9b5b13",
      "blockNumber": "0x3e23dc",
      "gasUsed": "0x5dce",
      "effectiveGasPrice": "0x10c8f2",
      "from": "0x679a295b982e75c1060bce840ca8044ffd340eaf",
      "to": "0xd8a5a9b31c3c0232e196d518e89fd8bf83acad43",
      "contractAddress": null
    }
  ],
  "libraries": [],
  "pending": [],
  "returns": {},
  "timestamp": 1751031734,
  "chain": 17000,
  "commit": "741d214"
}