{
  "transactions": [
    {
      "hash": "0x36065899243c408b31e51fa1f9de8de6b26bf2d7df08fd2635f6a1ff3fb2a086",
      "transactionType": "CALL",
      "contractName": null,
      "contractAddress": "0xd8a5a9b31c3c0232e196d518e89fd8bf83acad43",
      "function": "setImageId(uint32)",
      "arguments": [
        "0"
      ],
      "transaction": {
        "from": "0x679a295b982e75c1060bce840ca8044ffd340eaf",
        "to": "0xd8a5a9b31c3c0232e196d518e89fd8bf83acad43",
        "gas": "0x8190",
        "value": "0x0",
        "input": "0x4468726a0000000000000000000000000000000000000000000000000000000000000000",
        "nonce": "0x132",
        "chainId": "0x4268"
      },
      "additionalContracts": [],
      "isFixedGasLimit": false
    }
  ],
  "receipts": [
    {
      "status": "0x1",
      "cumulativeGasUsed": "0xf91c71",
      "logs": [],
      "logsBloom": "0x00000000000000000000000000000000000000000000000000000000000000000000000000000000000000000000000000000000000000000000000000000000000000000000000000000000000000000000000000000000000000000000000000000000000000000000000000000000000000000000000000000000000000000000000000000000000000000000000000000000000000000000000000000000000000000000000000000000000000000000000000000000000000000000000000000000000000000000000000000000000000000000000000000000000000000000000000000000000000000000000000000000000000000000000000000000",
      "type": "0x2",
      "transactionHash": "0x36065899243c408b31e51fa1f9de8de6b26bf2d7df08fd2635f6a1ff3fb2a086",
      "transactionIndex": "0x54",
      "blockHash": "0x66e5b87fb42939fbf9c4245f803234d9616f68dc1ee8c06e7c5416823395c084",
      "blockNumber": "0x3e1448",
      "gasUsed": "0x5dce",
      "effectiveGasPrice": "0xf89a3",
      "from": "0x679a295b982e75c1060bce840ca8044ffd340eaf",
      "to": "0xd8a5a9b31c3c0232e196d518e89fd8bf83acad43",
      "contractAddress": null
    }
  ],
  "libraries": [],
  "pending": [],
  "returns": {},
  "timestamp": 1750966429,
  "chain": 17000,
  "commit": "741d214"
}