{
  "transactions": [
    {
      "hash": "0x636c512691bd08d83ec59f8d3c985e732d69d7fcf959ec27c47e6b554baaf2e4",
      "transactionType": "CALL",
      "contractName": null,
      "contractAddress": "0xd8a5a9b31c3c0232e196d518e89fd8bf83acad43",
      "function": "setImageId(uint32)",
      "arguments": [
        "0"
      ],
      "transaction": {
        "from": "0x679a295b982e75c1060bce840ca8044ffd340eaf",
        "to": "0xd8a5a9b31c3c0232e196d518e89fd8bf83acad43",
        "gas": "0x8190",
        "value": "0x0",
        "input": "0x4468726a0000000000000000000000000000000000000000000000000000000000000000",
        "nonce": "0x333",
        "chainId": "0x4268"
      },
      "additionalContracts": [],
      "isFixedGasLimit": false
    }
  ],
  "receipts": [
    {
      "status": "0x1",
      "cumulativeGasUsed": "0x63d214",
      "logs": [],
      "logsBloom": "0x00000000000000000000000000000000000000000000000000000000000000000000000000000000000000000000000000000000000000000000000000000000000000000000000000000000000000000000000000000000000000000000000000000000000000000000000000000000000000000000000000000000000000000000000000000000000000000000000000000000000000000000000000000000000000000000000000000000000000000000000000000000000000000000000000000000000000000000000000000000000000000000000000000000000000000000000000000000000000000000000000000000000000000000000000000000",
      "type": "0x2",
      "transactionHash": "0x636c512691bd08d83ec59f8d3c985e732d69d7fcf959ec27c47e6b554baaf2e4",
      "transactionIndex": "0x2e",
      "blockHash": "0x4e45bb34cb2d7aa9402147615425b5978e2189b9e3031c1afcee020906ab4731",
      "blockNumber": "0x3e2645",
      "gasUsed": "0x5dce",
      "effectiveGasPrice": "0xf424f",
      "from": "0x679a295b982e75c1060bce840ca8044ffd340eaf",
      "to": "0xd8a5a9b31c3c0232e196d518e89fd8bf83acad43",
      "contractAddress": null
    }
  ],
  "libraries": [],
  "pending": [],
  "returns": {},
  "timestamp": 1751041549,
  "chain": 17000,
  "commit": "741d214"
}