{
  "transactions": [
    {
      "hash": "0xd9926d53bf623399a0102db84ef2310409125d6f9ac4432274057f224fe28570",
      "transactionType": "CALL",
      "contractName": null,
      "contractAddress": "0x1613beb3b2c4f22ee086b2b38c1476a3ce7f78e8",
      "function": "updateOperatorTable(uint32,(address,uint96[])[])",
      "arguments": [
        "125",
        "[(0x70997970C51812dc3A010C7d01b50e0d17dc79C8, [1000])]"
      ],
      "transaction": {
        "from": "0xf39fd6e51aad88f6f4ce6ab8827279cfffb92266",
        "to": "0x1613beb3b2c4f22ee086b2b38c1476a3ce7f78e8",
        "gas": "0x28b1f",
        "value": "0x0",
        "input": "0x7363a19a000000000000000000000000000000000000000000000000000000000000007d00000000000000000000000000000000000000000000000000000000000000400000000000000000000000000000000000000000000000000000000000000001000000000000000000000000000000000000000000000000000000000000002000000000000000000000000070997970c51812dc3a010c7d01b50e0d17dc79c80000000000000000000000000000000000000000000000000000000000000040000000000000000000000000000000000000000000000000000000000000000100000000000000000000000000000000000000000000000000000000000003e8",
        "nonce": "0x3c",
        "chainId": "0x7a69"
      },
      "additionalContracts": [],
      "isFixedGasLimit": false
    }
  ],
  "receipts": [
    {
      "status": "0x1",
      "cumulativeGasUsed": "0x1d767",
      "logs": [
        {
          "address": "0x1613beb3b2c4f22ee086b2b38c1476a3ce7f78e8",
          "topics": [
            "0xdc7899d1f2601e383105fa6794915051ca571469bdbedb60c0bb237d1f7ca296",
            "0x000000000000000000000000000000000000000000000000000000000000007d"
          ],
          "data": "0x0000000000000000000000000000000000000000000000000000000000000001",
          "blockHash": "0x79b80e677445a3d8fbf533dc0dbef266b777065ce11bc0dcf2c7263365520826",
          "blockNumber": "0x7e",
          "blockTimestamp": "0x6839c261",
          "transactionHash": "0xd9926d53bf623399a0102db84ef2310409125d6f9ac4432274057f224fe28570",
          "transactionIndex": "0x0",
          "logIndex": "0x0",
          "removed": false
        }
      ],
      "logsBloom": "0x00000000000000000000000000000000000000000000000000000000000000000000000000000000000000000000000000000000000000000000000000000000000000000000000000000000000000000000000000000000000000000000000008020000000000000000010000000000000004000000000000000000000000000000000000000000000000000000000000000000000000000000000100000000000000000000000000000000000000000000000000000000000000000000000000000000000000000000000000000000000000000000100000000000000800000000000000000000000010000000000000000000000000000000000000001000",
      "type": "0x2",
      "transactionHash": "0xd9926d53bf623399a0102db84ef2310409125d6f9ac4432274057f224fe28570",
      "transactionIndex": "0x0",
      "blockHash": "0x79b80e677445a3d8fbf533dc0dbef266b777065ce11bc0dcf2c7263365520826",
      "blockNumber": "0x7e",
      "gasUsed": "0x1d767",
      "effectiveGasPrice": "0x3b9aca59",
      "blobGasPrice": "0x1",
      "from": "0xf39fd6e51aad88f6f4ce6ab8827279cfffb92266",
      "to": "0x1613beb3b2c4f22ee086b2b38c1476a3ce7f78e8",
      "contractAddress": null
    }
  ],
  "libraries": [],
  "pending": [],
  "returns": {},
  "timestamp": 1748615777,
  "chain": 31337,
  "commit": "15ebb5d"
}