{
  "transactions": [
    {
      "hash": "0xd488d32a6f1257666da95a0e19e3239ecc5f8d58f29a0c4cc7963e6bae9d4ffb",
      "transactionType": "CALL",
      "contractName": null,
      "contractAddress": "0xf5059a5d33d5853360d16c683c16e67980206f36",
      "function": "updateOperatorTable(uint32,(address,uint96[])[])",
      "arguments": [
        "336",
        "[(0x70997970C51812dc3A010C7d01b50e0d17dc79C8, [1000])]"
      ],
      "transaction": {
        "from": "0xf39fd6e51aad88f6f4ce6ab8827279cfffb92266",
        "to": "0xf5059a5d33d5853360d16c683c16e67980206f36",
        "gas": "0x2b17e",
        "value": "0x0",
        "input": "0x7363a19a000000000000000000000000000000000000000000000000000000000000015000000000000000000000000000000000000000000000000000000000000000400000000000000000000000000000000000000000000000000000000000000001000000000000000000000000000000000000000000000000000000000000002000000000000000000000000070997970c51812dc3a010c7d01b50e0d17dc79c80000000000000000000000000000000000000000000000000000000000000040000000000000000000000000000000000000000000000000000000000000000100000000000000000000000000000000000000000000000000000000000003e8",
        "nonce": "0x3e",
        "chainId": "0x7a69"
      },
      "additionalContracts": [],
      "isFixedGasLimit": false
    }
  ],
  "receipts": [
    {
      "status": "0x1",
      "cumulativeGasUsed": "0x1d773",
      "logs": [
        {
          "address": "0xf5059a5d33d5853360d16c683c16e67980206f36",
          "topics": [
            "0xdc7899d1f2601e383105fa6794915051ca571469bdbedb60c0bb237d1f7ca296",
            "0x0000000000000000000000000000000000000000000000000000000000000150"
          ],
          "data": "0x0000000000000000000000000000000000000000000000000000000000000001",
          "blockHash": "0x90ffb4c3d94fa938a70434982c42d231a00804a292526b18465bb3bb97bd765a",
          "blockNumber": "0x151",
          "blockTimestamp": "0x68398d0f",
          "transactionHash": "0xd488d32a6f1257666da95a0e19e3239ecc5f8d58f29a0c4cc7963e6bae9d4ffb",
          "transactionIndex": "0x0",
          "logIndex": "0x0",
          "removed": false
        }
      ],
      "logsBloom": "0x00000000000000000000000000000000000000000000000000000000000000000000000000000000000000000000000000800010000000000000000000000000000000000000000000000000000000000000000000000000000000000000000000020000010000000000000000000000000004000000000000000000000000000400000000000000000000000000000000000000000000000000000000000000000000000000000000000000000000000000000000000000000000000000000000000000001000000000000000000000000000000000100000000000000000000000000000000000000000000000000000000000001000000000000000000000",
      "type": "0x2",
      "transactionHash": "0xd488d32a6f1257666da95a0e19e3239ecc5f8d58f29a0c4cc7963e6bae9d4ffb",
      "transactionIndex": "0x0",
      "blockHash": "0x90ffb4c3d94fa938a70434982c42d231a00804a292526b18465bb3bb97bd765a",
      "blockNumber": "0x151",
      "gasUsed": "0x1d773",
      "effectiveGasPrice": "0x3b9aca07",
      "blobGasPrice": "0x1",
      "from": "0xf39fd6e51aad88f6f4ce6ab8827279cfffb92266",
      "to": "0xf5059a5d33d5853360d16c683c16e67980206f36",
      "contractAddress": null
    }
  ],
  "libraries": [],
  "pending": [],
  "returns": {},
  "timestamp": 1748602127,
  "chain": 31337,
  "commit": "15ebb5d"
}