{
  "transactions": [
    {
      "hash": "0xbf98e1509d08e2c7f37be40eb90f8d7e45f772a5537c8d398bbb0c0d4c016dbd",
      "transactionType": "CALL",
      "contractName": null,
      "contractAddress": "0x1613beb3b2c4f22ee086b2b38c1476a3ce7f78e8",
      "function": "updateOperatorTable(uint32,(address,uint96[])[])",
      "arguments": [
        "130",
        "[(0x70997970C51812dc3A010C7d01b50e0d17dc79C8, [1000])]"
      ],
      "transaction": {
        "from": "0xf39fd6e51aad88f6f4ce6ab8827279cfffb92266",
        "to": "0x1613beb3b2c4f22ee086b2b38c1476a3ce7f78e8",
        "gas": "0x28b1f",
        "value": "0x0",
        "input": "0x7363a19a000000000000000000000000000000000000000000000000000000000000008200000000000000000000000000000000000000000000000000000000000000400000000000000000000000000000000000000000000000000000000000000001000000000000000000000000000000000000000000000000000000000000002000000000000000000000000070997970c51812dc3a010c7d01b50e0d17dc79c80000000000000000000000000000000000000000000000000000000000000040000000000000000000000000000000000000000000000000000000000000000100000000000000000000000000000000000000000000000000000000000003e8",
        "nonce": "0x3c",
        "chainId": "0x7a69"
      },
      "additionalContracts": [],
      "isFixedGasLimit": false
    }
  ],
  "receipts": [
    {
      "status": "0x1",
      "cumulativeGasUsed": "0x1d767",
      "logs": [
        {
          "address": "0x1613beb3b2c4f22ee086b2b38c1476a3ce7f78e8",
          "topics": [
            "0xdc7899d1f2601e383105fa6794915051ca571469bdbedb60c0bb237d1f7ca296",
            "0x0000000000000000000000000000000000000000000000000000000000000082"
          ],
          "data": "0x0000000000000000000000000000000000000000000000000000000000000001",
          "blockHash": "0x7aedd7e00a9014e5bfd2f492bc0a27dcb625e50d6d4b6c8f43cf6e3b56bfb8e3",
          "blockNumber": "0x83",
          "blockTimestamp": "0x68399324",
          "transactionHash": "0xbf98e1509d08e2c7f37be40eb90f8d7e45f772a5537c8d398bbb0c0d4c016dbd",
          "transactionIndex": "0x0",
          "logIndex": "0x0",
          "removed": false
        }
      ],
      "logsBloom": "0x00000000000000000000000000000000000000000000000000000000000000000000000000000000000000000000000000000010000000000000000000000000000000000000000000000000000000000000000000000000000000000000000048020000000000000000010000000000000004000000000000000000000000000000000000000000000000000000000000000000000000000000000000000000000000000000000000000000000000000000000000000000000000100000000000000000000000000000000000000000000000000000100000000000000000000000000000000000000000000000000000000000000000000000000000001000",
      "type": "0x2",
      "transactionHash": "0xbf98e1509d08e2c7f37be40eb90f8d7e45f772a5537c8d398bbb0c0d4c016dbd",
      "transactionIndex": "0x0",
      "blockHash": "0x7aedd7e00a9014e5bfd2f492bc0a27dcb625e50d6d4b6c8f43cf6e3b56bfb8e3",
      "blockNumber": "0x83",
      "gasUsed": "0x1d767",
      "effectiveGasPrice": "0x3b9aca30",
      "blobGasPrice": "0x1",
      "from": "0xf39fd6e51aad88f6f4ce6ab8827279cfffb92266",
      "to": "0x1613beb3b2c4f22ee086b2b38c1476a3ce7f78e8",
      "contractAddress": null
    }
  ],
  "libraries": [],
  "pending": [],
  "returns": {},
  "timestamp": 1748603684,
  "chain": 31337,
  "commit": "15ebb5d"
}